:1000000077C00000A6C00000A4C00000A2C000008D
:10001000A0C000009EC000009CC000009AC000006C
:1000200098C0000096C0000094C0000092C000007C
:1000300090C000008EC000008CC000008AC000008C
:1000400088C0000086C0000084C0000082C000009C
:1000500080C000007EC000007CC000000C947810BE
:1000600078C000000C94D8120C940E1372C00000DB
:1000700070C000006EC000006CC000006AC00000CC
:1000800068C0000066C0000064C0000062C00000DC
:100090000C9483130C94B9135CC000005AC0000088
:1000A00058C0000056C0000054C0000052C00000FC
:1000B00050C000004EC000004CC000004AC000000C
:1000C00048C0000046C0000044C000000C942E143C
:1000D0000C9464143EC000000C94D9140C940F15B9
:1000E00038C0000096054013EB1396144115D30554
:1000F00011241FBECFEFD1E2DEBFCDBF00E00CBFA9
:1001000012E0A0E0B2E0EEEBFEE200E00BBF02C0C6
:1001100007900D92A635B107D9F725E0A6E5B2E024
:1001200001C01D92A534B207E1F710E0CEEED0E099
:1001300000E006C022970109FE010BBF0E940916CC
:10014000C43ED10780E00807A9F70E9488150C94E7
:100150004E1756CF0C940D1665E085EA92E00E948A
:10016000DB0F66E072E08DEC92E00E94D2156CE04D
:1001700072E08DEC92E00E94D21560ED77E080E0B5
:1001800090E00C94E510FC018081918124813581FF
:100190002817390711F00C94A51608958CE592E004
:1001A000F2CF89E692E0EFCF86E792E0ECCFAF9214
:1001B000BF92CF92DF92EF92FF920F931F93CF9354
:1001C000DF93EC01AC84BD84EA84FB84C884D984C9
:1001D0000C811D810A151B05A9F0C8010596D3DF06
:1001E000055F1F4F0C151D05A9F7F701928183814B
:1001F000F2E0EF0EF11C092F182F68012BE0C20E60
:10020000D11CE8CF88819981892B11F10A891B893A
:100210000E5F1F4FEA84FB84E016F10638F4F70105
:10022000819191917F010E94A516F6CF88819981D5
:100230002A813B81232B61F0DF91CF911F910F9198
:10024000FF90EF90DF90CF90BF90AF900C94A516E9
:10025000DF91CF911F910F91FF90EF90DF90CF90A2
:10026000BF90AF900895EF92FF920F931F93CF939B
:10027000DF93EC01EA80FB80088119810E151F05D0
:1002800029F0C80180DF035F1F4FF8CF8881998173
:100290002C813D81281B390B65EC7EE4269FA00153
:1002A000279F500D369F500D1124452B41F0DF91B3
:1002B000CF911F910F91FF90EF900C94A516DF91B5
:1002C000CF911F910F91FF90EF90089586E592E0F6
:1002D000CACF85EA92E00E94E60D8AEA92E0C3DF87
:1002E00080EB92E064CFCF93DF93EC01CE010E94CC
:1002F0000D16009761F4E0918302F091840230972B
:1003000021F480E090E00E944E171995EFCFDF9125
:10031000CF910895CF92DF92EF92FF920F931F93A8
:10032000CF93DF93EC017B018FEFE81AF80ACB0142
:1003300003968830910510F488E090E09B838A83CF
:10034000880F991FD0DF998388830A811B810E193A
:100350001F090E7F080F191FEE0CFF1CE00EF11E87
:100360006801CE14DF0440F48BE090E0BCDFF601BE
:10037000819391936F01F5CF1B870A87F801208144
:1003800031813F832E83C9010B9699878887F701B6
:100390003297FB8BEA8B808191819F878E87AC019E
:1003A000455F5F4F598B488B3D832C839D878C879E
:1003B000DF91CF911F910F91FF90EF90DF90CF9041
:1003C0000895CF92DF92EF92FF920F931F93CF93F6
:1003D000DF931F921F92CDB7DEB76C01DC0111963F
:1003E0001C921E9213961C921E92129715961C92A6
:1003F0001E921497FB0101900020E9F78F01015034
:100400001109061B170B7801FFEFEF1AFF0A8FEF98
:10041000E816F806D1F0E114F10439F0C701698358
:100420007A8361DF69817A8102C080E090E0D60141
:1004300011969C938E9313969C938E931297E80E2D
:10044000F91E1596FC92EE921497F601E080F18069
:10045000A801C7010E943D17F701E00FF11FD60167
:100460001396FC93EE93129710820F900F90DF91EA
:10047000CF911F910F91FF90EF90DF90CF90089553
:10048000CF92DF92EF92FF920F931F93CF93DF9360
:100490001F921F92CDB7DEB76C017B0168177907F9
:1004A00009F454C0FB016081718102811381061B34
:1004B000170BFC018081918124813581281B390B28
:1004C00020173107E0F4C80169837A830CDF7C01CF
:1004D000A80169817A810E943D17F601808191818E
:1004E000248135812817390711F00E94A516F601DD
:1004F000F182E082E00EF11EF582E48220C0F60176
:1005000022813381281B390B2017310710F0A801F5
:1005100014C0A9010E943D17F601828193812081B8
:100520003181AC01421B530BF70160817181640F73
:10053000751F42815381461B570B0E943D17F601E0
:1005400080819181800F911F93838283C6010F90D8
:100550000F90DF91CF911F910F91FF90EF90DF905F
:10056000CF900895CF92DF92EF92FF920F931F9357
:10057000CF93DF93EC018B01FB01C280D38080819C
:100580009181C81AD90A198218821B821A821D8287
:100590001C82C114D10421F0C601A5DE7C0102C079
:1005A000E12CF12CF982E882FB82EA82CE0CDF1C7E
:1005B000DD82CC82F80160817181C280D380C61A4D
:1005C000D70AA601C7010E943D17EC0CFD1CFB8257
:1005D000EA82F801868197819F838E838085888750
:1005E0008185898782858A87838594859C878B8787
:1005F000DF91CF911F910F91FF90EF90DF90CF90FF
:100600000895CF93DF93EC018DE090E00E940D16EA
:10061000BE01DF91CF91A6CF4F925F926F927F92F2
:100620008F929F92AF92BF92CF92DF92EF92FF9202
:100630000F931F93CF93DF93CDB7DEB72D970FB6F0
:10064000F894DEBF0FBECDBF8C017B014A01FC01D7
:1006500082819381248135818217930709F45EC0DA
:100660000D97CFDFF801828193810D96938382836A
:10067000B401CE01019676DFF80102811381680191
:10068000FAE1CF1AD10896012E193F0985EC9EE4B4
:10069000289F5001299FB00C389FB00C11240D5099
:1006A00011091A141B0414F52DE0C21AD108B60161
:1006B000C8010D97E5DEF60186819781948B838BC7
:1006C000F801729780813D9680833C9780813D96AA
:1006D00080833C9780813D968083F6018385948555
:1006E000918F808FF1E0AF1AB108D9CFBE016F5F53
:1006F0007F4FC701C5DE8F819885F7019783868379
:10070000898580878A8581878B8582878C859D8571
:1007100094878387CE01019636DD83C0F80120815E
:100720003181821B930B25EC3EE4829F5001839F15
:10073000B00C929FB00C1124A114B10439F0F4E173
:10074000AF0EB11CA114B10421F40DC0AA24A394CE
:10075000B12C8DE0282F2A9DC0012B9D900D1124D6
:10076000C2DD6C0104C0A12CB12CC12CD12CF8012C
:100770006080718023014E145F0431F0C20141DFBB
:10078000FDE04F0E511CF7CF2701C70186199709CD
:100790003C016C0C7D1CC40134DF9DE0690E711CB2
:1007A000F80182809380E814F90431F0C70129DF51
:1007B000FDE0EF0EF11CF7CFE418F508E60CF71C8E
:1007C000F80162807380808091808614970431F0F4
:1007D000C401D9DCFDE08F0E911CF7CFF8018081B8
:1007E000918124813581281B390B65EC7EE4269F9D
:1007F000A001279F500D369F500D1124452B11F05D
:100800000E94A516F801D182C082F382E2822DE017
:100810002A9DC0012B9D900D11248C0D9D1D95834B
:1008200084832D960FB6F894DEBF0FBECDBFDF9147
:10083000CF911F910F91FF90EF90DF90CF90BF90DD
:10084000AF909F908F907F906F905F904F900895A2
:10085000CF93DF93EC01CB016A817B814C815D8179
:100860006417750749F0CDDE8A819B810D969B83C5
:100870008A83DF91CF910895AC01CE01DF91CF91B2
:10088000CBCEAF92BF92CF92DF92EF92FF920F93B7
:100890001F93CF93DF93CDB7DEB7A2970FB6F8942F
:1008A000DEBF0FBECDBF26E040E855E260E070E05D
:1008B0008DEC92E00E94781226E040E855E260E07C
:1008C00070E08AE693E00E94781226E040E855E264
:1008D00060E070E087E094E00E94781226E040E853
:1008E00055E260E070E084EA94E00E947812CE0164
:1008F00082965AD180919D0281110EC04AE653E042
:1009000060E070E086E792E01CD381E080939D0276
:1009100084ED90E00E9484158091950281110EC0B3
:1009200047E054E061E070E089E692E00AD381E0BC
:100930008093950281ED90E00E94841580918D0254
:1009400081110EC044EA54E062E070E08CE592E070
:10095000F8D281E080938D028EEC90E00E948415A5
:1009600080918502811113C0109257021092560295
:10097000109259021092580210925B0210925A0281
:1009800081E08093850286E691E00E94841566E707
:1009900072E086E592E05CDF69E672E086E592E06F
:1009A00057DF6CE572E086E592E052DF66E172E0C7
:1009B0008DEC92E00E94D61560ED77E080E090E04B
:1009C0000E94E510809158029091590220915602A0
:1009D00030915702821B930B25EC3EE4829F7001FD
:1009E000839FF00C929FF00C11241A8219821C82B2
:1009F0001B821E821D82E114F10419F074DC8C014B
:100A000002C000E010E01A8309831C830B832DE0F1
:100A10002E9DC0012F9D900D1124800F911F9E834C
:100A20008D83A0905802B0905902C0905602D09089
:100A300057027601EA14FB0431F0C701E2DD8DE0D4
:100A4000E80EF11CF7CFEC18FD08E00EF11EFC8259
:100A5000EB82BE016F5F7F4FCE0182966FD2CE01D7
:100A6000019601DC6EE172E08DEC92E00E94D615F9
:100A7000AE01455E5F4F63E272E0CE010196A1DCFC
:100A800021E0AE014F5F5F4F63E0CE010E9618D4B8
:100A900089819A812D813E812817390711F00E94A2
:100AA000A516AE014F5D5F4F6CE272E0CE014B9632
:100AB00088DC20E0AE01455E5F4F65E0CE01019627
:100AC000FFD38B8D9C8D2F8D38A12817390711F0FE
:100AD0000E94A516BE01625F7F4F85EA92E00E94E8
:100AE000EC0FBE016F5F7F4F85EA92E00E94EC0F32
:100AF00041E050E062E070E0CE01019606D7CE0101
:100B00000196A8D3CE010E96A5D3A2960FB6F8945F
:100B1000DEBF0FBECDBFDF91CF911F910F91FF9030
:100B2000EF90DF90CF90BF90AF9008951092B102F8
:100B30001092B0021092B3021092B2021092B5025B
:100B40001092B4021092B7021092B6021092B9023B
:100B50001092B8021092BB021092BA021092BD021B
:100B60001092BC021092BF021092BE021092C102FB
:100B70001092C0021092C3021092C20260E070E0B4
:100B800080EB92E0C7DB1092AB021092AA021092A7
:100B9000AD021092AC021092AF021092AE0285EA42
:100BA00092E00C94E70D95CB0895CF92DF92EF92EF
:100BB000FF920F931F93CF93DF93EC016B01FB0127
:100BC000E280F38080819181E81AF90A1982188203
:100BD0001B821A821D821C82E114F10421F0C701DC
:100BE00082DB8C0102C000E010E0198308831B83C4
:100BF0000A83E00EF11EFD82EC82F60160817181B4
:100C0000E280F380E61AF70AA701C8010E943D17A7
:100C10000E0D1F1D1B830A83DF91CF911F910F9132
:100C2000FF90EF90DF90CF9008956F927F928F9218
:100C30009F92AF92BF92CF92DF92EF92FF920F936B
:100C40001F93CF93DF93EC015B013A014C017C01D0
:100C50006A018DE0E80EF11CCA15DB0521F1B60131
:100C60008DE090E077DA8C01BE019FDF8E819F815D
:100C7000F80197838683F70135978081F801808793
:100C8000F70134978081F8018187F70133978081DC
:100C9000F80182878B859C85948783872D96FDE05C
:100CA000CF0ED11CD6CFCE0188199909860D971D7C
:100CB000DF91CF911F910F91FF90EF90DF90CF9038
:100CC000BF90AF909F908F907F906F9008954F92BC
:100CD0005F926F927F928F929F92AF92BF92CF92CC
:100CE000DF92EF92FF920F931F93CF93DF93EC016C
:100CF0005B016817790709F40FC1FB0182809380BB
:100D000000811181C401801B910B25EC3EE4829F80
:100D10006001839FD00C929FD00C1124E880F98051
:100D20004C815D814E195F09429FB001439F700D58
:100D3000529F700D11246C157D05C0F5C114D104AE
:100D400019F0D1DA7C0102C0E12CF12CA701B40129
:100D5000C8016BDFAA80BB80088119810A151B05B9
:100D600029F0C80110DA035F1F4FF8CF88819981FD
:100D70002C813D81281B390B65EC7EE4269FA00168
:100D8000279F500D369F500D1124452B11F00E94C6
:100D9000A516F982E8822DE02C9DC0012D9D900DB5
:100DA00011248E0D9F1D9D838C83AAC08A819B81F7
:100DB0008E199F09829FA001839F500D929F500D15
:100DC00011244C155D0508F44FC047015801260158
:100DD00037013DE0830E911C8DE0A80EB11C141468
:100DE000150454F5B801C3014BDBF80186819781E6
:100DF000F30197838683F50135978081F401359758
:100E00008083F50134978081F40134978083F50164
:100E100033978081F40133978083F801838594852B
:100E2000F30194878387035F1F4FFDE06F0E711CF2
:100E300021E0421A5108CDCFC601D7FE02C080E0A2
:100E400090E02DE0289F8001299F100D11240E0DA8
:100E50001F1DEA80FB800E151F0509F451C0C80153
:100E600092D9035F1F4FF7CF829F2001839F500CC1
:100E7000929F500C1124370148013DE0630E711C14
:100E80008DE0880E911C1414150454F5B801C701A7
:100E9000F7DAF80186819781F70197838683F40159
:100EA00035978081F30135978083F40134978081F1
:100EB000F30134978083F40133978081F3013397F2
:100EC0008083F80183859485F70194878387035F86
:100ED0001F4FFDE0EF0EF11C21E0421A5108CDCF6B
:100EE0004A815B81F50162817381888199819A01D0
:100EF000281B390BC90120813181820F931F95DE98
:100F00008DE08C9D90018D9D300D112488819981FB
:100F1000820F931F9B838A83CE01DF91CF911F9114
:100F20000F91FF90EF90DF90CF90BF90AF909F9088
:100F30008F907F906F905F904F9008958AEA92E033
:100F4000C6CE0F931F93CF93DF93EC0119821882C3
:100F50001B821A821D821C827C876B875F834E8373
:100F6000188619861A8680E490E0BDD98C018881A4
:100F700099812C813D812817390711F00E94A5160F
:100F8000198308831B830A83005C1F4F1D830C8316
:100F9000DF91CF911F910F910895CF93DF93FC01C3
:100FA000A081B18115968D919C911697009759F06B
:100FB00091838083A081B18113968D919C91149728
:100FC0000097B1F717C011960D90BC91A02DC0816C
:100FD000D18115968D919C911697C817D90719F450
:100FE000B183A083F0CF8D819E818A179B0711F07A
:100FF000B183A083DF91CF910895CF93DF93FC015C
:10100000A081B1818C9181110FC01196CD91DC919D
:1010100012970980DA81C02DCA17DB0729F48D8168
:101020009E81918380831EC01396CD91DC9114978D
:10103000209749F08D819E81009711F0EC01FACF45
:10104000D183C0830FC011960D90BC91A02D20813B
:10105000318113968D919C911497B183A0832817A9
:10106000390789F3DF91CF910895CF93DF93FC0186
:10107000A581B6811396CD91DC911497D683C58353
:10108000209711F09A8389838181928112969C9393
:101090008E931197EB0188819981E817F90719F46C
:1010A000B983A8830CC0C181D2818B819C81E81750
:1010B000F90719F4BC83AB8302C0BE83AD831496D9
:1010C000FC93EE931397B283A183DF91CF910895A0
:1010D000CF93DF93FC01A381B4811596CD91DC9170
:1010E0001697D483C383209711F09A8389838181D3
:1010F000928112969C938E931197EB01888199812E
:10110000E817F90719F4B983A8830CC0C181D2810B
:101110008D819E81E817F90719F4BE83AD8302C063
:10112000BC83AB831696FC93EE931597B283A18391
:10113000DF91CF910895DF92EF92FF920F931F936B
:10114000CF93DF938C017B01DC011C92DD24D394CF
:10115000D701ED91FC910E171F0751F481E08083B8
:10116000DF91CF911F910F91FF90EF90DF90089545
:10117000D8011196CD91DC91129788818111EECF23
:10118000E981FA81A381B481CA17DB0709F5A5813A
:10119000B681109739F08C91811104C0D882DC920D
:1011A000108237C08D819E810817190721F4B7017D
:1011B000CE015BDF8E01D8011196ED91FC91129763
:1011C000D08281819281FC011082B70181DF20C031
:1011D000109749F08C91811106C0D882DC92A981C8
:1011E000BA811C9216C08B819C810817190721F4C3
:1011F000B701CE016DDF8E01D8011196ED91FC9102
:101200001297D08281819281FC011082B7012DDF7B
:10121000F8018F019DCFFC0180810895EF92FF922C
:101220000F931F93CF93DF938C01EB01209759F01D
:101230006D817E81C801F2DFEB80FC80CE010E94CF
:10124000A516E701F3CFDF91CF911F910F91FF908A
:10125000EF900895CF93DF93EC0189859A85892BD0
:10126000A9F0EF81F88561817281CE010796D6DF02
:10127000EF81F885F483E383EF81F8851282118290
:10128000EF81F885F683E5831A8619868F81988524
:101290000E94A51689819A812D813E8128173907E0
:1012A00021F0DF91CF910C94A516DF91CF91089595
:1012B000BC0181E090E00E94AA00FC011082089528
:1012C0004F925F926F927F929F92AF92BF92CF9216
:1012D000DF92EF92FF920F931F93CF93DF931F92B2
:1012E000CDB7DEB72C017A01922EDC0112961C924A
:1012F0001E92119714961C921E92139716961C928A
:101300001E92159788E090E069830E9473018C011A
:10131000F2019283818394838383089696838583E5
:10132000C801C6DFD8011C92F201108617828BE03B
:1013300090E00E947301D20118969C938E931797A8
:101340001A961C921E921997FC0110821282118229
:101350001796ED91FC911897F483E3831796ED911E
:10136000FC911897F683E583F20169816193EE168B
:10137000FF0609F4C2C0D7011296AD90BC90139736
:10138000ED90FC9085010E191F09F2018181928177
:1013900043815481481B590B40175107F0F0A801B5
:1013A000B7010E943417D20113962D913C911497E6
:1013B0001196ED91FC911297E00FF11FE217F307E0
:1013C00009F49BC0D9018C918083AE1BBF0BF20145
:1013D000838194818A1B9B0B8EC0B7010E943417B6
:1013E000D20113968D919C91149711962D913C9159
:1013F00012976C01C21AD30AEC0CFD1CEA14FB0410
:1014000009F47BC085010E191F09A8014C0D5D1D53
:1014100015966D917C911697621B730B6150710943
:101420006417750708F048C0BFEFCB1ADB0AC80184
:101430000431110510F484E190E05601A80EB91EA4
:10144000A114B10429F0C5010E9473016C0102C00E
:10145000C12CD12CF2016181728163807480661A83
:10146000770AA301C6010E943D176C0C7D1CA801E0
:10147000B701C3010E943D17060D171DC80118DFF3
:10148000D8011C92F2018181928125813681281731
:10149000390711F00E94A516D2011296DC92CE9265
:1014A000119714961C930E931397CA0CDB1C169677
:1014B000DC92CE92159721C0B7016F5F7F4FA501D7
:1014C000461B570B01960E943D17F201C380D48042
:1014D000C00ED11EC601ECDED6011C92D2011396BD
:1014E000ED91FC911497D7018C918083F201838157
:1014F0009481800F911F94838383D2011C969C92C8
:101500000F90DF91CF911F910F91FF90EF90DF909F
:10151000CF90BF90AF909F907F906F905F904F90D3
:101520000895CF93DF93EB01BC0184E090E00E942B
:10153000AA00488159816A817B81FC0140835183E3
:1015400062837383DF91CF910895AF92BF92CF9260
:10155000DF92EF92FF920F931F93CF93DF935C0183
:101560006B017901DB018D919C912817390769F096
:10157000452B59F4F80120813181D70117968D91BF
:101580009C9118972817390714F58BE090E00E947A
:101590007301EC01B8010796C4DFD7011496DC9300
:1015A000CE931397D601ED91FC91EE16FF0639F418
:1015B000F701D283C183D601ED91FC911BC08381D9
:1015C0009481E816F906C1F4D483C38315C08BE077
:1015D00090E00E947301EC01B8010796A2DFF701C9
:1015E000D683C583D601ED91FC9185819681E8165D
:1015F000F90611F4D683C583FA82E9821C821B8224
:101600001E821D82F601608171816F5F7F4FCE0166
:1016100092DDD60112968D919C91139701961396A7
:101620009C938E931297F501D183C083C501DF91FE
:10163000CF911F910F91FF90EF90DF90CF90BF90CF
:10164000AF900895CF92DF92EF92FF920F931F9386
:10165000CF93DF93CDB7DEB728970FB6F894DEBFF0
:101660000FBECDBF7C018A01DB01CD90DC90D6019D
:101670001196ED91FC911297960181E0309799F0C7
:10168000D8012D913C91878190852817390724F442
:101690004381948181E003C04581968180E09F0170
:1016A000E42FF92FEBCF3C832B83882301F1F60144
:1016B000838194812817390779F440E050E0CE0106
:1016C000019643DF89819A81D70111969C938E936D
:1016D00081E012968C9328C0CE0103962D833E8321
:1016E0006F8378878ADC78856F813E812D81EB81DD
:1016F000FC8147815085D8018D919C9148175907ED
:101700006CF440E050E0CE0101961FDF89819A81A0
:10171000F7019183808381E0828306C0D70111960F
:10172000FC93EE9312961C92C70128960FB6F8947C
:10173000DEBF0FBECDBFDF91CF911F910F91FF9004
:10174000EF90DF90CF900895CF92DF92EF92FF92CB
:101750000F931F93CF93DF93CDB7DEB727970FB6C5
:10176000F894DEBF0FBECDBF7C016A018901DA01AA
:10177000ED91FC91DB012D913C91D90113968D9156
:101780009C911497E817F907A1F4DB0112968D914B
:101790009C911397892B09F449C0D8012D913C9154
:1017A00087819085281739070CF040C09F01AF0151
:1017B0003AC0E217F30761F425813681F9014781C8
:1017C0005085D8018D919C91481759077CF520C010
:1017D000FD83EC83CE0104966E837F830EDC2C8127
:1017E0003D81D8018D919C91F901478150856E8191
:1017F0007F8148175907D4F4D6014D915C91DA01E5
:101800001796ED91FC9118978E179F0724F00EC044
:1018100040E050E008C0D90115968D919C91169733
:10182000892BB1F39A01C70190DE09C0A801CE014E
:10183000019608DF89819A81F70191838083C7012E
:1018400027960FB6F894DEBF0FBECDBFDF91CF91C4
:101850001F910F91FF90EF90DF90CF900895EF923E
:10186000FF920F931F93CF93DF93CDB7DEB72897E7
:101870000FB6F894DEBF0FBECDBFDC014D915C9179
:10188000DA011196ED91FC9112977A01DB012D910D
:101890003C91309779F007811085021713071CF0EF
:1018A0003381248103C035812681F7017F01E32F35
:1018B000F22FECCFE416F506A9F0F7014781508529
:1018C000241735077CF0C701099628960FB6F894BF
:1018D000DEBF0FBECDBFDF91CF911F910F91FF9063
:1018E000EF9008953A8329831C821B82FE82ED8249
:1018F0009E012F5F3F4FAE014B5F5F4FBC01CE019A
:10190000079622DFEF80F884DECFAF92BF92CF92AE
:10191000DF92EF92FF920F931F93CF93DF931F926B
:101920001F92CDB7DEB77A8369837A01DC011796FF
:101930000D911C9118976C01B7E0CB0ED11CD8010A
:101940001196ED91FC911297262F372F309779F051
:1019500087819085821793071CF09381848103C04F
:1019600095818681FD01DF01E92FF82FEFCFA017C8
:10197000B10739F017968D919C9118972817390760
:101980004CF4BE016F5F7F4FC60169DFFC01F1823D
:10199000E0820BC0BE016F5F7F4FC60160DFDC01DC
:1019A0008D919C91E816F90664F30F900F90DF91EA
:1019B000CF911F910F91FF90EF90DF90CF90BF904C
:1019C000AF900895AF92BF92CF92DF92EF92FF92C5
:1019D0000F931F93CF93DF935C018B017A018BE010
:1019E00090E00E947301EC01B801695F7F4F079698
:1019F00098DDF801808188831C821B821E821D82F3
:101A0000FA82E982658176816115710529F0AE015E
:101A1000C501D8DF9E838D83F801E380F4806E01D9
:101A2000E114F10449F18BE090E00E9473018C0114
:101A3000B701695F7F4F079674DDF7018081F80178
:101A400080831482138216821582F6011483038325
:101A5000F801D282C182F701658176816115710535
:101A600031F0A801C501AEDFF80196838583F70147
:101A7000E380F4806801D4CFCE01DF91CF911F9134
:101A80000F91FF90EF90DF90CF90BF90AF900895AF
:101A9000EF92FF920F931F93CF93DF93EC017B01A3
:101AA000198218828BE090E00E9473018C01998367
:101AB00088831B821A82D7011796ED91FC911897A3
:101AC000618172816115710569F4FC0110821282D5
:101AD0001182E881F981F483E383E881F981F68357
:101AE000E58328C0DC011C92AC01CE016BDFF8015C
:101AF00092838183A881B9811196ED91FC9112970F
:101B000083819481009711F0FC01FACF1496FC9325
:101B1000EE931397A881B9811196ED91FC911297DC
:101B200085819681009711F0FC01FACF1696FC93FF
:101B3000EE931597D70119968D919C911A979B83D7
:101B40008A83CE01DF91CF911F910F91FF90EF908B
:101B50000895EF92FF920F931F93CF93DF938C0121
:101B6000EB01209759F06D817E81C801F2DFEB8097
:101B7000FC80CE010E94A516E701F3CFDF91CF9143
:101B80001F910F91FF90EF900895CF93DF93EC0199
:101B90008A819B81892BA1F0E881F9816181728121
:101BA000CE01D7DFE881F981F483E383E881F9810D
:101BB00012821182E881F981F683E5831B821A8201
:101BC00088819981DF91CF910C94A516DECFCF93B8
:101BD000DF93EC01198218828AE090E00E94730181
:101BE000998388831B821A82FC01108212821182DF
:101BF000E881F981F483E383E881F981F683E58361
:101C0000DF91CF910895CF93DF93EB01BC0183E087
:101C100090E00E94AA00288139814A81FC0120833A
:101C200031834283DF91CF910895AF92BF92CF92DB
:101C3000DF92EF92FF920F931F93CF93DF935C019C
:101C40006B017901DB018D919C912817390749F0CF
:101C5000452B39F4F8019081D90117968C9198178A
:101C600010F58AE090E00E947301EC01B80107963C
:101C7000CADFD7011496DC93CE931397D601ED916A
:101C8000FC91EE16FF0639F4F701D283C183D60129
:101C9000ED91FC911BC083819481E816F906C1F493
:101CA000D483C38315C08AE090E00E947301EC01E5
:101CB000B8010796A8DFF701D683C583D601ED9159
:101CC000FC9185819681E816F90611F4D683C583C7
:101CD000FA82E9821C821B821E821D82F6016081CB
:101CE00071816F5F7F4FCE0126DAD60112968D91FA
:101CF0009C911397019613969C938E931297F501DE
:101D0000D183C083C501DF91CF911F910F91FF90C7
:101D1000EF90DF90CF90BF90AF900895CF92DF9279
:101D2000EF92FF920F931F93CF93DF93CDB7DEB760
:101D300028970FB6F894DEBF0FBECDBF7C018A0195
:101D4000DB01CD90DC90D6011196ED91FC911297BC
:101D5000960181E0309781F0D8019C918781981796
:101D600020F44381948181E003C04581968180E025
:101D70009F01E42FF92FEECF3C832B83882301F1C1
:101D8000F601838194812817390779F440E050E007
:101D9000CE0101964ADF89819A81D70111969C93E1
:101DA0008E9381E012968C9325C0CE0103962D83ED
:101DB0003E836F83788721D978856F813E812D811D
:101DC000EB81FC819781D8018C91981768F440E0F1
:101DD00050E0CE01019629DF89819A81F701918334
:101DE000808381E0828306C0D7011196FC93EE9335
:101DF00012961C92C70128960FB6F894DEBF0FBE4C
:101E0000CDBFDF91CF911F910F91FF90EF90DF90A9
:101E1000CF900895CF92DF92EF92FF920F931F938E
:101E2000CF93DF93CDB7DEB727970FB6F894DEBF19
:101E30000FBECDBF7C016A018901DA01ED91FC91F1
:101E4000DB012D913C91D90113968D919C911497B2
:101E5000E817F90789F4DB0112968D919C9113978D
:101E6000892B09F443C0D8019C918781981708F009
:101E70003DC09F01AF0137C0E217F30791F4258100
:101E80003681F9019781D8018C91981718F1A80132
:101E9000CE01019643DF89819A81F7019183808386
:101EA0002EC0FD83EC83CE0104966E837F83A5D87C
:101EB0002C813D81D8018C91F90197816E817F81C0
:101EC0009817A0F4D6014D915C91FA01978189177A
:101ED00020F00CC040E050E006C0F90185819681F9
:101EE000892BC1F39A01C701A0DE09C0A801CE0168
:101EF000019614DF89819A81D7018D939C93C70144
:101F000027960FB6F894DEBF0FBECDBFDF91CF91FD
:101F10001F910F91FF90EF90DF90CF9008950F9356
:101F20001F93CF93DF93CDB7DEB727970FB6F89403
:101F3000DEBF0FBECDBFDC012D913C91D9011196C2
:101F4000ED91FC9112978901DB014C91309769F07A
:101F50005781541718F05381448103C0558146813D
:101F6000F8018F01E52FF42FEFCF0217130789F047
:101F7000F8012781421768F0C801089627960FB626
:101F8000F894DEBF0FBECDBFDF91CF911F910F91AF
:101F9000089549831B821A821D830C839E012F5F43
:101FA0003F4FAE014C5F5F4FBC01CE01069632DF62
:101FB0000E811F81E1CFCF93DF931F92CDB7DEB7A4
:101FC0006983BE016F5F7F4FAADFFC018081918131
:101FD0000F90DF91CF910895BF92CF92DF92EF9251
:101FE000FF920F931F93CF93DF93CDB7DEB7289760
:101FF0000FB6F894DEBF0FBECDBF8C017B01CB01C5
:102000000AD9B82ED8012D913C91D9011196ED91A4
:10201000FC911297309769F087818B1518F09381A6
:10202000848103C095818681FD01DF01E92FF82FAE
:10203000F1CFA217B30721F017968C91B81650F480
:10204000B982BE016F5F7F4FC80169DFDC01ED928D
:10205000FC923EC0B701CE0101961ADDE981FA81FA
:10206000838194819F838E8389819A81EE81FF8110
:10207000E817F907A9F0C184D284E780F084B88614
:10208000BE01685F7F4FC8014ADFA601B701FC01AE
:10209000808191813ADCCE0106960E94CD07E4CF83
:1020A0008B819C81892B89F061817281CE0101969F
:1020B000B5D8E981FA81F483E38312821182E98140
:1020C000FA81F683E5831C821B8289819A813DD641
:1020D00028960FB6F894DEBF0FBECDBFDF91CF912B
:1020E0001F910F91FF90EF90DF90CF90BF900895D8
:1020F0001F920F920FB60F9211242F933F938F933D
:102100009F93AF93BF938091C5029091C602A09117
:10211000C702B091C8023091C40223E0230F2D37CB
:1021200020F40196A11DB11D05C026E8230F0296DB
:10213000A11DB11D2093C4028093C5029093C602D5
:10214000A093C702B093C8028091C9029091CA02BD
:10215000A091CB02B091CC020196A11DB11D80933C
:10216000C9029093CA02A093CB02B093CC02BF9154
:10217000AF919F918F913F912F910F900FBE0F9034
:102180001F9018953FB7F8948091C9029091CA02A8
:10219000A091CB02B091CC0226B5A89B05C02F3FE1
:1021A00019F00196A11DB11D3FBF6627782F892F19
:1021B0009A2F620F711D811D911D42E0660F771FDE
:1021C000881F991F4A95D1F70895CF92DF92EF9219
:1021D000FF92CF93DF936B017C01D4DFEB01C1143D
:1021E000D104E104F10479F0F1D4CCDF6C1B7D0B58
:1021F000683E7340A0F381E0C81AD108E108F108F5
:10220000C851DC4FECCFDF91CF91FF90EF90DF9082
:10221000CF900895789484B5826084BD84B5816040
:1022200084BD85B5826085BD85B5816085BDEEE6DE
:10223000F0E0808181608083E1E8F0E010828081BD
:1022400082608083808181608083E0E8F0E080812B
:1022500081608083E1EBF0E0808184608083E0EB4B
:10226000F0E0808181608083E1E9F0E0808182603C
:102270008083808181608083E0E9F0E080818160FB
:102280008083E1EAF0E080818260808380818160E8
:102290008083E0EAF0E0808181608083E1E2F1E028
:1022A000808182608083808181608083E0E2F1E0D0
:1022B000808181608083EAE7F0E0808184608083B0
:1022C000808182608083808181608083808180685A
:1022D00080831092C1000895FC01818D228D90E0D1
:1022E000805C9F4F821B91098F7399270895FC0191
:1022F000918D828D981731F0828DE80FF11D858DBB
:1023000090E008958FEF9FEF0895FC01918D828DED
:10231000981761F0828DDF01A80FB11D5D968C9139
:10232000928D9F5F9F73928F90E008958FEF9FEF44
:10233000089587E393E1892B39F080E090E0892BC1
:1023400019F095D1811122C082EE93E1892B39F0E9
:1023500080E090E0892B19F035D281111AC08DE808
:1023600094E1892B39F080E090E0892B19F0D5D2E7
:10237000811112C088E395E1892B99F080E090E00B
:10238000892B79F075D381110AC008950E9400004D
:10239000DBCF0E940000E3CF0E940000EBCF0C9443
:1023A00000000895FC01848DDF01A80FB11DA35A20
:1023B000BF4F2C91848D90E001968F739927848F65
:1023C000A689B7892C93A089B1898C9180648C935C
:1023D000938D848D981306C00288F389E02D808147
:1023E0008F7D80830895CF93DF93EC01888D8823C0
:1023F000C1F0EA89FB89808185FD05C0A889B9897A
:102400008C9186FD0EC00FB607FCF5CF808185FF4D
:10241000F2CFA889B9898C9185FFEDCFCE01C2DFBB
:10242000E8CFDF91CF910895CF92DF92FF920F9383
:102430001F93CF93DF931F92CDB7DEB76C0181E07E
:10244000D60158968C9358975B969C915B975C96B7
:102450008C915C97981307C05096ED91FC91519721
:10246000808185FD2DC0F601038D10E00F5F1F4FA9
:102470000F731127F02EF601848DF81210C00FB6DD
:1024800007FCF9CFD6015096ED91FC9151978081D0
:1024900085FFF1CFC601698385DF6981ECCF838D2C
:1024A000E80FF11DE35AFF4F6083D6015B960C9352
:1024B0005B975296ED91FC915397808180620CC09E
:1024C000D6015696ED91FC91579760835096ED9109
:1024D000FC91519780818064808381E090E00F902F
:1024E000DF91CF911F910F91FF90DF90CF900895D2
:1024F000BF92CF92DF92EF92FF92CF93DF93EC01E6
:102500006A017B01B22EE889F98982E08083411556
:1025100081EE58076105710599F060E079E08DE37F
:1025200090E0A701960153D3215031094109510987
:102530005695479537952795211580E1380790F0F6
:10254000E889F989108260E874E88EE190E0A701DB
:1025500096013DD3215031094109510956954795BE
:1025600037952795EC85FD853083EE85FF852083A3
:10257000188EEC89FD89B082EA89FB8980818061AF
:102580008083EA89FB89808188608083EA89FB896E
:10259000808180688083EA89FB8980818F7D808348
:1025A000DF91CF91FF90EF90DF90CF90BF90089593
:1025B0001F920F920FB60F9211240BB60F922F930A
:1025C0008F939F93EF93FF93E091DD02F091DE02F2
:1025D0008081E091E302F091E40282FD12C09081DB
:1025E0008091E6028F5F8F732091E702821751F08E
:1025F000E091E602F0E0E353FD4F958F8093E60211
:1026000001C08081FF91EF919F918F912F910F9049
:102610000BBE0F900FBE0F901F9018951F920F9238
:102620000FB60F9211240BB60F922F933F934F9337
:102630005F936F937F938F939F93AF93BF93EF932A
:10264000FF938DEC92E0AEDEFF91EF91BF91AF91E1
:102650009F918F917F916F915F914F913F912F91BA
:102660000F900BBE0F900FBE0F901F9018958DEC22
:1026700092E032DE21E0892B09F420E0822F0895D8
:102680001092D0021092CF0288EE93E0A0E0B0E06A
:102690008093D1029093D202A093D302B093D4023C
:1026A00089E392E09093CE028093CD0285EC90E096
:1026B0009093DA028093D90284EC90E09093DC024C
:1026C0008093DB0280EC90E09093DE028093DD0249
:1026D00081EC90E09093E0028093DF0282EC90E046
:1026E0009093E2028093E10286EC90E09093E40202
:1026F0008093E3021092E6021092E7021092E80241
:102700001092E90208951F920F920FB60F921124B2
:102710000BB60F922F938F939F93EF93FF93E091BC
:102720007A03F0917B038081E0918003F091810333
:1027300082FD12C09081809183038F5F8F732091FF
:102740008403821751F0E0918303F0E0E659FC4FD7
:10275000958F8093830301C08081FF91EF919F91BA
:102760008F912F910F900BBE0F900FBE0F901F9067
:1027700018951F920F920FB60F9211240BB60F925D
:102780002F933F934F935F936F937F938F939F9379
:10279000AF93BF93EF93FF938AE693E003DEFF913D
:1027A000EF91BF91AF919F918F917F916F915F91C9
:1027B0004F913F912F910F900BBE0F900FBE0F9036
:1027C0001F9018958AE693E087DD21E0892B09F4B4
:1027D00020E0822F089510926D0310926C0388EE12
:1027E00093E0A0E0B0E080936E0390936F03A0931A
:1027F0007003B093710389E392E090936B0380932D
:102800006A038DEC90E090937703809376038CECD1
:1028100090E0909379038093780388EC90E0909314
:102820007B0380937A0389EC90E090937D038093FF
:102830007C038AEC90E090937F0380937E038EEC80
:1028400090E0909381038093800310928303109211
:102850008403109285031092860308951F920F92AD
:102860000FB60F9211240BB60F922F938F939F9355
:10287000EF93FF93E0911704F09118048081E091A9
:102880001D04F0911E0482FD12C0908180912004ED
:102890008F5F8F7320912104821751F0E091200403
:1028A000F0E0E95FFB4F958F8093200401C08081A9
:1028B000FF91EF919F918F912F910F900BBE0F90F1
:1028C0000FBE0F901F9018951F920F920FB60F9288
:1028D00011240BB60F922F933F934F935F936F93F7
:1028E0007F938F939F93AF93BF93EF93FF9387E073
:1028F00094E058DDFF91EF91BF91AF919F918F913F
:102900007F916F915F914F913F912F910F900BBEEF
:102910000F900FBE0F901F90189587E094E0DCDCBD
:1029200021E0892B09F420E0822F089510920A04F7
:102930001092090488EE93E0A0E0B0E080930B04CD
:1029400090930C04A0930D04B0930E0489E392E0DD
:10295000909308048093070485ED90E0909314040D
:102960008093130484ED90E09093160480931504F3
:1029700080ED90E0909318048093170481ED90E02F
:1029800090931A048093190482ED90E090931C04B4
:1029900080931B0486ED90E090931E0480931D04A9
:1029A0001092200410922104109222041092230409
:1029B00008951F920F920FB60F9211240BB60F922B
:1029C0002F938F939F93EF93FF93E091B404F09133
:1029D000B5048081E091BA04F091BB0482FD12C07D
:1029E00090818091BD048F5F8F732091BE04821708
:1029F00051F0E091BD04F0E0EC55FB4F958F8093D2
:102A0000BD0401C08081FF91EF919F918F912F9123
:102A10000F900BBE0F900FBE0F901F9018951F9236
:102A20000F920FB60F9211240BB60F922F933F9374
:102A30004F935F936F937F938F939F93AF93BF93C6
:102A4000EF93FF9384EA94E0ADDCFF91EF91BF91A7
:102A5000AF919F918F917F916F915F914F913F9136
:102A60002F910F900BBE0F900FBE0F901F901895D7
:102A700084EA94E031DC21E0892B09F420E0822F04
:102A800008951092A7041092A60488EE93E0A0E0A7
:102A9000B0E08093A8049093A904A093AA04B093F3
:102AA000AB0489E392E09093A5048093A40485E3AA
:102AB00091E09093B1048093B00484E391E090930B
:102AC000B3048093B20480E391E09093B5048093C3
:102AD000B40481E391E09093B7048093B60482E359
:102AE00091E09093B9048093B80486E391E09093C9
:102AF000BB048093BA041092BD041092BE041092DD
:102B0000BF041092C004089580E090E008950895F5
:102B100081DBFDDF0E944104C9E9D1E10E94AC00E4
:102B20002097E1F306DCFACFCF92DF92EF92FF928B
:102B30000F931F93CF93DF937C016A01EB0100E0B9
:102B400010E00C151D0571F06991D701ED91FC9114
:102B50000190F081E02DC7011995892B19F00F5FC5
:102B60001F4FEFCFC801DF91CF911F910F91FF90C1
:102B7000EF90DF90CF9008956115710581F0DB0132
:102B80000D900020E9F7AD0141505109461B570B4C
:102B9000DC01ED91FC910280F381E02D199480E03D
:102BA00090E00895E9CF65E472E0E6CF0F931F93BC
:102BB000CF93DF93EC01E0DF8C01CE01F4DF800FD7
:102BC000911FDF91CF911F910F9108950895A1E278
:102BD0001A2EAA1BBB1BFD010DC0AA1FBB1FEE1F97
:102BE000FF1FA217B307E407F50720F0A21BB30BE2
:102BF000E40BF50B661F771F881F991F1A9469F75E
:102C000060957095809590959B01AC01BD01CF01B9
:102C100008950790F691E02D1994CF93DF938230B9
:102C2000910510F482E090E0E0914305F0914405B5
:102C300020E030E0A0E0B0E0309739F140815181F0
:102C400048175907B8F04817590771F482819381E2
:102C5000109729F013969C938E9312972CC0909303
:102C600044058093430527C02115310531F04217F3
:102C7000530718F0A901DB0101C0EF019A01BD0162
:102C8000DF010280F381E02DD7CF21153105F9F066
:102C9000281B390B2430310580F48A819B81611512
:102CA000710521F0FB019383828304C09093440556
:102CB00080934305FE01329644C0FE01E20FF31FEC
:102CC0008193919322503109398328833AC020910E
:102CD000410530914205232B41F4209102023091AD
:102CE0000302309342052093410520910002309168
:102CF00001022115310541F42DB73EB74091040280
:102D000050910502241B350BE0914105F0914205DD
:102D1000E217F307A0F42E1B3F0B2817390778F0B2
:102D2000AC014E5F5F4F2417350748F04E0F5F1F11
:102D300050934205409341058193919302C0E0E096
:102D4000F0E0CF01DF91CF910895CF93DF9300970B
:102D500009F487C0FC01329713821282C0914305A7
:102D6000D0914405209781F420813181280F391FAB
:102D700080914105909142058217930779F5F09370
:102D80004205E09341056DC0DE0120E030E0AE1762
:102D9000BF0750F412964D915C9113979D01411518
:102DA000510509F1DA01F3CFB383A2834081518148
:102DB000840F951F8A179B0771F48D919C91119731
:102DC000840F951F02969183808312968D919C911A
:102DD0001397938382832115310529F4F0934405D9
:102DE000E09343053EC0D9011396FC93EE931297EE
:102DF0004D915D91A40FB51FEA17FB0779F480810F
:102E00009181840F951F0296D90111969C938E9300
:102E10008281938113969C938E931297E0E0F0E069
:102E20008A819B81009719F0FE01EC01F9CFCE0158
:102E3000029628813981820F931F2091410530919C
:102E400042052817390769F4309729F41092440590
:102E50001092430502C013821282D0934205C093A0
:102E60004105DF91CF910895FB01DC0102C0019083
:102E70000D9241505040D8F708956817790768F4CB
:102E8000FB01DC01E40FF51FA40FB51F02C0029087
:102E90000E9241505040D8F70895E6CF10E0CEEEA4
:102EA000D0E000E005C022970109FE010BBFB1DEB2
:0E2EB000C03FD10780E00807B1F7F894FFCFCC
:102EBE00000045058000506F7274200044697374E1
:102ECE00616E636520004B494C4C204D45004845D2
:102EDE004C500053657276696365330053657276A4
:102EEE00696365350000000000141294156C11859D
:102EFE00117711F3110D0A006E616E00696E660096
:062F0E006F7666002E0044
:00000001FF
